:060000000A128A11FC2F18
:100F4000831203131F08C3390C389F000830F200C6
:100F5000F20BA82F831203139F149F18B02FB12FE9
:100F6000AD2F1E08F100831603131E08F0000800C1
:100F7000083083160313850087018312031387014A
:100F800081309F008030831603139F00FF30920052
:100F90000C30831203139D00043092000A128A1150
:100FA000A0270A128A117108F6007008F500760869
:100FB000F4007508F3000310F40CF30C0310F40CA8
:100FC000F30C7308831203139B0075080139F300B7
:100FD000F30E1D087306EF3973069D00750802397C
:100FE000F300F30EF30D1D087306DF3973069D0041
:100FF000CE2F0A128A11002883010A128A11B82FF3
:00000001FF
