:1000000000308A00BC2800002330840083130008DD
:10001000031917280630F800F701F70B0D28F80B25
:100020000C287B30F700F70B1328800B0A280800F8
:100030000830F8000430F700F70B1C288711A011D6
:100040002008831687000330F700F70B252883125A
:10005000A30D0712031C32282016200883168700E0
:10006000362883122012200883168700000083128E
:10007000A0152008831687008312871D3D28F80BE2
:100080001A280430F700F70B43288711A011200825
:10009000831687000000831220162008831687002D
:1000A0000330F700F70B52280330F700F70B562800
:1000B0008312A0152008831687008312871D5E28EF
:1000C000F8010330F700F70B6328071A781487113B
:1000D000A01120088316870083120712201220081F
:1000E00083168700831208002016200883168700D5
:1000F0000430F700F70B7A288312A0152008831626
:1001000087000330F700F70B8328831207122012B1
:100110002008831687000430F700F70B8D28831220
:100120008711A01120088316870083122108A300DD
:1001300018202208A3001820201220088316870008
:1001400000008312A0152008831687008312871DE4
:10015000A7280430F700F70BAB28AE2800002016C4
:100160002008831687000430F700F70BB5283230DB
:100170008312A3000420080003081F398300FF3006
:10018000A000831603170908C039890003131F1242
:100190009F120030031788008312870188018901AC
:1001A0008313033083160313860006148312061884
:1001B000E628831606148312061CD9283230A300C1
:1001C0000420A030A1001030A200742083168614F1
:1001D00083128618F828831686148312861CEB284F
:1001E0003230A3000420A030A1002030A2007420EF
:0601F0008316D528630010
:04400E00E22FFF3F5F
:00000001FF
;PIC16F887
;CRC=3DB5  CREATED="12-May-25 18:43"
