:020000000528D1
:10000A008316FF308500003086008700880017308D
:10001A00810083128316031788018901831203134F
:10002A008701860188010D30A00036202E20440861
:10003A00C300643087203908C2006430C3070A301D
:10004A0087203908C1000A30C30778207D20822022
:10005A001B280508A0002430200784000008C400DB
:10006A000800243084000030A1000030A2002208D9
:10007A002107A100C3008000840A82200030C10049
:10008A00C20078207D208E20200803190800003045
:10009A00A1000130A20022082107A100C3008000AC
:1000AA00840A82208E20A00B5B28080022082107E0
:1000BA00A3002208A100C3008000840A2308A2002A
:1000CA00643087203908C2006430C3070A308720A9
:1000DA003908C1000A30C30778207D2082208E208B
:1000EA00A00B5B28080042080F399A2086000800F6
:1000FA0041080F399A208700080043080F399A20CF
:10010A0088000800B901C30203188C280800B90A3C
:10011A0088281030C700922008000B113C3081005B
:10012A000B1D9528C70B9228080082073F34063416
:10013A005B344F3466346D347D3407347F346F3426
:04400E00E12FFF3F60
:00000001FF
