:1000000000308A0041280000FF00030E8301A10098
:100010000A08A0008A010408A2007708A300780853
:10002000A4007908A5007A08A600831383128C30F7
:100030008400801D1D288C192E2822088400230886
:10004000F7002408F8002508F9002608FA0020081F
:100050008A00210E8300FF0E7F0E09008A110A120A
:1000600031288316141C3C28831214138C1D362847
:1000700013081416A800831683128C118A110A1211
:100080001D2803081F398300FF30A700A715270884
:100090008316870083122716270883168700A0304F
:1000A0009300363083129400831611140317090845
:1000B000C039890003131F129F12003003178800F4
:1000C00083128701880189018313831603130108B2
:1000D000C73908388100831290010030F80092007F
:1000E00000308316920003170908C03989000313F2
:1000F0001F129F12003003178800831203131F1072
:10010000F03097059D0583168C15C03083128B0443
:10011000831686018312860100308316860006103E
:10012000831206102808103C031D9A288316061017
:10013000831206142808203C031DA22883160610EB
:080140008312061092286300EF
:04400E00E22FFF3F5F
:00000001FF
;PIC16F887
;CRC=DCA2  CREATED="12-May-25 18:46"
